:020000040800F2
:10000000900F00207D7D0008D9080008DB0800085B
:10001000DF080008E3080008E70800080000000007
:10002000000000000000000000000000EB080008D5
:10003000ED08000800000000EF080008F1080008C3
:10004000977D0008977D0008977D0008977D000840
:10005000977D0008977D0008977D0008977D000830
:10006000977D0008977D0008977D0008977D000820
:10007000977D0008977D0008977D0008977D000810
:10008000977D0008977D0008977D0008977D000800
:10009000977D0008977D0008977D0008977D0008F0
:1000A000977D0008977D0008977D0008977D0008E0
:1000B000977D00085B7A0008977D0008977D00080F
:1000C000977D0008977D0008977D0008977D0008C0
:1000D000977D0008357C0008977D0008977D000813
:1000E000977D0008977D0008977D0008977D0008A0
:1000F000977D0008977D0008977D0008977D000890
:10010000977D0008977D0008977D0008977D00087F
:10011000977D0008977D0008977D0008977D00086F
:10012000977D0008977D0008977D0008977D00085F
:1001300000F002F800F03FF80AA090E8000C8244BA
:100140008344AAF10107DA4501D100F034F8AFF297
:10015000090EBAE80F0013F0010F18BFFB1A43F0A5
:100160000103184738C0000058C00000103A24BFEF
:1001700078C878C1FAD8520724BF30C830C144BF0C
:1001800004680C607047000000230024002500264E
:10019000103A28BF78C1FBD8520728BF30C148BFEA
:1001A0000B607047782909F04983002070471FB51C
:1001B0001FBD10B510BD09F00BFC1146FFF7F7FF8E
:1001C00000F02BFA09F029FC03B4FFF7F2FF03BC9F
:1001D00007F0D2FC1CB54FF6FF7002F062F81F204A
:1001E000FA490880FAA01021CDE90010F9490988E0
:1001F000183988B21023C822002106F071F84FF494
:100200007840F24908801CBDF8B505460E461446F4
:100210001F4604B9F8BD2819401E82B23346314644
:100220002846009705F091FD00BFF3E72DE9F05F48
:100230000746884616469A4640F2C32070434FF45C
:100240007A71B0FBF1F000F1010906FB06F000EB5A
:10025000560B344671040A0CB91B88B2534641460A
:10026000FFF7D2FF012535E005FB05F004FB040094
:1002700058451AD94C4517D96B1E5B041A0C08EB6C
:10028000040399B27B1B5B1C98B25346FFF7BCFF7B
:100290006B1E5B041A0CA8EB040399B27B1B5B1C5E
:1002A00098B25346FFF7B0FF641E63041A0C08EBC4
:1002B000050399B23B1B98B25346FFF7A5FF6304B1
:1002C0001A0CA8EB050399B23B1B98B25346FFF7F3
:1002D0009BFF6D1C4D45C7D9BDE8F09F02468A4281
:1002E00002DD501A80B27047881A80B2FBE72DE910
:1002F000FF4F85B080468946129F002003900290F0
:10030000B84507DB0798B84204DBB94502DB08981B
:10031000B84202DA09B0BDE8F08F0798A0EB0804F4
:100320000898A0EB0905CDF80480CDF80090002CCA
:1003300002DD4FF0010A06E014B94FF0000A02E0B6
:100340004FF0FF3A6442002D02DD4FF0010B06E052
:1003500015B94FF0000B02E04FF0FF3B6D42AC428D
:1003600001DD264600E02E460020049023E0009A9E
:1003700091B2019A90B23A46139BFFF757FF039848
:10038000204403900298284402900398B04205DD6F
:100390000398801B03900198504401900298B0424A
:1003A00005DD0298801B0290009858440090049844
:1003B000401C80B20490711C04988842D7DD00BFB5
:1003C000A8E700254EE0002005F0F3FF0446824830
:1003D000416800208847804890F8200000F08000A5
:1003E00008B37D4880897B49098888421EDA7A48AB
:1003F000C08A78494988884218DA774881897548DF
:1004000000881838814206DD7348C08A102802DA55
:10041000FFF7E0FE0AE0704AD18A90894FF47842F3
:1004200006F02FFE02E00A2007F073FB012C09D131
:100430004FF6FF7001F035FF06F0F2FF06F0C0FE48
:10044000FFF7C8FE681CC5B2142095FBF0F100FB55
:10045000115038B96148006808B9012000E0002057
:100460005E490860AFE788B00024002584E05A4860
:10047000416800208847002469E0574890F8200030
:100480000121A140084000285AD053480C3030F8D0
:10049000140050490988884257DA4F48163030F81E
:1004A00014004C49498888424FDA03A830F82400E8
:1004B0004FF6FF7188420DD147480C3030F81400D8
:1004C00003A921F824004448163030F8140001EB49
:1004D00084014880424830F8140002213E4E16360E
:1004E000CDE9001036F814300A3E36F8142003AE79
:1004F00006EB8406718803AE36F82400FFF7F7FE9A
:1005000035480C3030F8140003A921F82400324893
:10051000163030F8140001EB840148802E480C306E
:1005200030F814102B480088183881420DDD2A4815
:10053000163030F81400102807DAFFF74BFE04E0FD
:100540004FF6FF7003A921F82400601CC4B2052CEB
:1005500093DB052007F0DDFA681CC5B2142095FB7B
:10056000F0F100FB115038B91C48006808B90120AF
:1005700000E000201949086079E77CB504460D4683
:100580001646207818B94FF6FF7001F08AFE102049
:10059000CDE90006E804020C207800EB8000810021
:1005A0001023002005F09CFE2078401C207020784D
:1005B0000F2801DD002020707CBD2DE9F041804630
:1005C0000D4616462C46374613E000001400002066
:1005D000525354007C0000201C000020A001214246
:1005E00016A900083A461E214046FFF7C6FF1E37EF
:1005F0001E3C1E2CF6D83A4621464046FFF7BDFF6A
:10060000BDE8F08110B5002304E00C780470401CB4
:10061000491C5B1C9342F8DB10BD08B50027002481
:100620000020009007F0A2FA07F036FA4FF41650B7
:1006300007F0B1FA01F087FE5E49086880470020A4
:100640005D49088041F61F4141F2873007F0D8F933
:10065000AEE05A4800780A2807D159A009F0AEF850
:1006600056480078401C55490870544800781428B2
:1006700007D156A009F0A2F850480078401C4F4915
:1006800008704E4800781E2807D153A009F096F84C
:100690004A480078401C4949087048480078282892
:1006A00007D158A009F08AF844480078401C434913
:1006B000087042480078322807D156A009F07EF829
:1006C0003E480078401C3D4908703C4800783C2872
:1006D00016D154A009F072F861A009F06FF866A075
:1006E00009F06CF870A009F069F83AA009F066F812
:1006F00038A009F063F831480078401C2F49087091
:100700002E4800784B2805D101272C480078401C42
:100710002A49087029480078502807D167A009F0B5
:100720004DF826480078401C24490870234800787A
:100730005A2807D161A009F041F820480078401CF0
:100740001E4908701D480078642807D15CA009F094
:1007500035F81A480078401C18490870012F0CD150
:1007600000270EB9102600E02646F01E584901EB7E
:10077000C01280216846FFF720FF564830F8140069
:1007800000F40040A0B1534830F81400C0F30D0548
:100790004F4800EBC41229466846FFF70EFF0020C1
:1007A0004C4921F81400601CC4B2102C00D1002464
:1007B0004FE700001C00002014000020580000201B
:1007C00041542B5253540D0A0000000041542B4356
:1007D000494653520D0A000041542B43495053548B
:1007E0004152543D22544350222C226170692E798B
:1007F00065656C696E6B2E6E6574222C38300D0A3F
:100800000000000041542B4349504D4F44453D31B9
:100810000D0A000041542B43495053454E440D0AE4
:1008200000000000474554202F76312E302F64659C
:10083000766963652F31393436352F73656E736F82
:10084000722F33343134372F64617461706F696E85
:10085000747320485454502F312E310D0A0000007B
:10086000486F73743A206170692E7965656C696EA2
:100870006B2E6E65740D0A00552D4170694B6579BC
:100880003A206565373361356466373136656337DD
:1008900030373032623134623936656332366662FF
:1008A00031370D0A00000000436F6E6E6563746996
:1008B0006F6E3A20636C6F73650D0A002B2B2B0053
:1008C00041542B4349504D4F44453D300D0A0000E3
:1008D0008A0000208A080020704700BFFEE700BFA2
:1008E000FEE700BFFEE700BFFEE7704770477047B6
:1008F000704700000CB50020019000906C48006823
:1009000040F480306A49086000BF6948006800F41C
:10091000003000900198401C0190009818B901988F
:10092000B0F5A06FF1D16248006800F4003010B15A
:100930000120009001E0002000900098012843D1A0
:100940005C48006840F010005A490860084600689A
:1009500020F0030008600846006840F002000860CC
:100960005348406852494860084640684860084615
:10097000406840F4806048600846406820F47C107D
:1009800048600846406840F4E8104860084600683F
:1009900040F08070086000BF4548006800F00070BB
:1009A0000028F9D04248406820F0030040494860E0
:1009B0000846406840F00200486000BF3C4840687C
:1009C00000F00C000828F9D10CBD10B5FFF792FF1C
:1009D00010BD10B53648006840F001003449086089
:1009E0000846406834490840314948600846006874
:1009F000324908402E4908600846006820F48020EB
:100A000008600846406820F4FE0048604FF41F006C
:100A10008860FFF7DAFF4FF000602949086010BDD9
:100A200010B5002100200022214B5B6803F00C016F
:100A300021B1042906D0082928D107E0214B224CF6
:100A4000236027E01F4B204C236023E0184B5B689A
:100A500003F47010164B5B6803F48032022303EB3F
:100A6000904022B9194B4343174C23600DE0104BC3
:100A70005B6803F4003323B1144B4343124C2360EF
:100A800003E0104B4343104C236003E00D4B0E4C2E
:100A9000236000BF00BF064B5B68C3F303130C4C1D
:100AA000E15C094B1B68CB40074C236010BD000084
:100AB00000100240002002400000FFF8FFFFF6FE99
:100AC00008ED00E000127A000000002000093D005F
:100AD0000400002010B504464FF48071FE4807F072
:100AE0007CFA4FF40071FC4807F077FA2146FB4886
:100AF00007F07AFA8021F84807F06FFA8021F6486B
:100B000007F069FA4FF40071F34807F064FA10BD7A
:100B100010B504464FF48071EF4807F05CFA4FF4CB
:100B20000071ED4807F059FA2146EC4807F05CFAED
:100B30008021E94807F051FA8021E74807F04BFA95
:100B40004FF40071E44807F046FA10BD10B54FF0BD
:100B50008830E2490860091D08600020DF490C3137
:100B600008608915DC4807F036FA4FF40071DA485E
:100B700007F033FA4021D84807F02FFAD848808888
:100B800048F68911884202D1022006F09EFFD34820
:100B900007F010FA04464021CF4807F01CFA4FF442
:100BA0000071CD4807F017FA4FF03330CB49086099
:100BB000091D08604FF6FF70C8490C3108602046D7
:100BC00010BD70B504460D462046FFF783FF4FF475
:100BD0008071C14807F0FFF94FF40071BE4807F07B
:100BE000FCF92946BD4807F0FFF98021BA4807F013
:100BF000F4F98021B84807F0EEF94FF40071B648D7
:100C000007F0E9F970BD10B504462046FFF762FF12
:100C1000FFF79CFF10BD10B5B1490889FFF75AFFD7
:100C200010BD10B504464FF48071AB4807F0D3F9FE
:100C30004FF40071A84807F0D0F92146A74807F003
:100C4000D3F98021A44807F0C8F98021A24807F011
:100C5000C2F94FF40071A04807F0BDF910BD30B5DE
:100C6000014601F01F04C1F34513CA0AE50205EB72
:100C700043151544A8B230BD70B504460D469848DA
:100C8000808849F24131884205D09548808845F2F4
:100C90001031884275D192494889FFF71BFF4FF404
:100CA00080718D4807F097F94FF400718A4807F07A
:100CB00094F92112894807F097F98021864807F0B6
:100CC0008CF98021844807F086F94FF4007182483E
:100CD00007F081F94FF480717F4807F07CF94FF4F9
:100CE00000717D4807F079F9E1B27C4807F07CF9A2
:100CF0008021794807F071F98021774807F06BF976
:100D00004FF40071744807F066F975498889FFF758
:100D1000E1FE4FF48071704807F05DF94FF4007107
:100D20006D4807F05AF929126C4807F05DF98021E7
:100D3000694807F052F98021674807F04CF94FF4F1
:100D40000071654807F047F94FF48071624807F079
:100D500042F94FF40071604807F03FF9E9B25F488B
:100D600007F042F980215C4807F037F980215A48A2
:100D700007F031F94FF40071574807F02CF928E1DA
:100D8000FFE75748808846F6040188427ED15448E0
:100D90008079012804D152480088401E001B84B28B
:100DA0004F494889FFF796FE4FF480714A4807F093
:100DB00012F94FF40071484807F00FF92112474823
:100DC00007F012F98021444807F007F980214248D2
:100DD00007F001F94FF400713F4807F0FCF84FF4B9
:100DE00080713D4807F0F7F84FF400713A4807F07A
:100DF000F4F8E1B2394807F0F7F88021364807F0F7
:100E0000ECF88021344807F0E6F84FF400713248DE
:100E100007F0E1F832498889FFF75CFE4FF48071F2
:100E20002D4807F0D8F84FF400712B4807F0D5F89B
:100E300029122A4807F0D8F88021274807F0CDF872
:100E40008021254807F0C7F84FF40071224807F0C9
:100E5000C2F84FF48071204807F0BDF84FF40071DC
:100E60001D4807F0BAF8E9B21C4807F0BDF8802128
:100E7000194807F0B2F88021174807F0ACF84FF492
:100E80000071154807F0A7F8A3E0FFE71448808831
:100E900045F2105188427CD111494889FFF71AFE6A
:100EA0004FF480710C4807F096F84FF400710A482F
:100EB00007F093F82112094807F096F880210648B8
:100EC00007F08BF88021044807F085F84FF4007193
:100ED000014807F080F805E000100140000C0140D7
:100EE0007C000020F8494989491C88B2FFF7F2FDCF
:100EF0004FF48071F54807F06EF84FF40071F34835
:100F000007F06BF8E1B2F24807F06EF88021EF4885
:100F100007F063F88021ED4807F05DF84FF40071A9
:100F2000EA4807F058F8E8498889FFF7D3FD4FF4FD
:100F30008071E64807F04FF84FF40071E34807F07E
:100F40004CF82912E24807F04FF88021DF4807F0FB
:100F500044F88021DD4807F03EF84FF40071DB488B
:100F600007F039F8D8498989491C88B2FFF7B2FDE2
:100F70004FF48071D54807F02EF84FF40071D34834
:100F800007F02BF8E9B2D24807F02EF88021CF48BD
:100F900000E00BE007F021F88021CC4807F01BF8B7
:100FA0004FF40071C94807F016F812E0C64880797E
:100FB000012804D1C4480088401E001B84B2C249E5
:100FC00048892146FFF7FDFDBF4988892946FFF77B
:100FD000F8FD70BD2DE9F04105460E46BA4800887F
:100FE000A84203DDB8484088B04202DC0020BDE8DA
:100FF000F08131462846FFF73FFEB348808849F22A
:10100000413188420BD0B048808846F604018842BE
:1010100005D0AD48808845F21031884203D12E209A
:10102000FFF758FD0DE0A848808845F2105188422E
:1010300004D14FF43850FFF74DFD02E02220FFF7B6
:1010400049FD4FF08830A2490860091D08604FF63D
:10105000FF709F490C31086089159C4806F0BBFF62
:101060004FF40071994806F0B8FF4021974806F008
:10107000B4FF012006F029FD4021944806F0ABFFA3
:101080004021924806F0A9FF012006F01EFD90487D
:1010900006F090FF044640218C4806F09CFF8A48E9
:1010A000808849F2413188420BD08748808845F2D8
:1010B0001031884205D08448808845F2105188421A
:1010C00011D14021814806F088FF814806F072FF67
:1010D000804640217D4806F07EFFE7B24FF6FF7064
:1010E00000EA072711E07848808846F60401884224
:1010F0000BD14021754806F070FF4021734806F07F
:101100006AFF734806F056FF04464FF400716F48BB
:1011100006F061FF4FF033306D490860091D08602B
:101120004FF6FF706A490C3108606748808849F2C1
:101130002531884216D06448808844F2355188426F
:1011400010D061488088091F88420BD05E48808893
:1011500048F68911884205D05B4880884BF20551DA
:10116000884201D1204642E75748808849F2413100
:1011700088420BD05448808845F21031884205D00F
:101180005148808845F21051884207D1E012C002D0
:10119000B91240EA411040EAE82028E72046FFF76C
:1011A0005EFD24E710B54848808849F24131884205
:1011B0000BD04548808846F60401884205D0424855
:1011C000808845F21031884203D12920FFF782FC44
:1011D0000FE03D48808845F21051884204D14FF419
:1011E0002450FFF777FC04E040F273110720FFF76B
:1011F000E8FC10BD10B53448808849F2413188427E
:101200000BD03148808846F60401884205D02E482C
:10121000808845F21031884203D12820FFF75AFC1C
:101220000EE02948808845F21051884204D14FF4DD
:101230002050FFF74FFC03E000210720FFF7C1FC1F
:1012400010BD2DE9F0410546002400271E48807995
:1012500001281ED11C48808846F60401884218D017
:10126000082D15D2DFE805F00406080A0C0E10124E
:1012700006250DE007250BE0042509E0052507E01C
:10128000012505E0002503E0032501E0022500BF5C
:1012900000BF0D48808849F24131884211D00A4888
:1012A000808846F6040188420BD00748808845F2C2
:1012B0001031884205D00448808845F21051884298
:1012C0007ED1082D23D205E07C00002000100140D3
:1012D000000C0140DFE805F00406090C0F12151898
:1012E00000BF14E044F0800411E044F040040EE03C
:1012F00044F0C0040BE044F0200408E044F0600433
:1013000005E044F0A00402E044F0E00400BF00BFA8
:10131000FE48808845F21051884202D14FF4585758
:1013200000E03627F948808845F21031884207D01E
:10133000F648808845F21051884201D044F00804F4
:10134000F248808846F60401884201D144F0020444
:1013500021463846FFF735FC04F0200068B1EB4821
:101360000088EA494988884214DAE84806884088B3
:10137000E6490880084646800CE0E4480088E349D6
:101380004988884206DDE14806884088DF490880B0
:1013900008464680DD48808845F2105188427CD15D
:1013A000DA494889FFF796FB4FF48071D84806F078
:1013B00012FE4FF40071D64806F00FFE002100E047
:1013C000FBE1D44806F010FE8021D14806F005FE6E
:1013D0008021CF4806F0FFFD4FF40071CC4806F0A5
:1013E000FAFDCA494989491C88B2FFF773FB4FF4DB
:1013F0008071C74806F0EFFD4FF40071C44806F055
:10140000ECFD0021C34806F0EFFD8021C04806F046
:10141000E4FD8021BE4806F0DEFD4FF40071BC48BB
:1014200006F0D9FDB9494989891C88B2FFF752FBFA
:101430004FF48071B64806F0CEFD4FF40071B44809
:1014400006F0CBFDB1480088401EC0F30F21B14823
:1014500006F0CAFD8021AE4806F0BFFD8021AC48F1
:1014600006F0B9FD4FF40071A94806F0B4FDA74994
:101470004989C91C88B2FFF72DFB4FF48071A4483D
:1014800006F0A9FD4FF40071A14806F0A6FD9F48A3
:101490000078401EC1B29F4800E098E006F0A4FD2D
:1014A00080219B4806F099FD8021994806F093FD24
:1014B0004FF40071964806F08EFD94498889FFF735
:1014C00009FB4FF48071924806F085FD4FF40071DE
:1014D0008F4806F082FD00218E4806F085FD8021B0
:1014E0008B4806F07AFD8021894806F074FD4FF4A0
:1014F0000071874806F06FFD84498989491C88B2CC
:10150000FFF7E8FA4FF48071814806F064FD4FF46C
:1015100000717F4806F061FD00217E4806F064FD01
:1015200080217B4806F059FD8021794806F053FD63
:101530004FF40071764806F04EFD74498989891C84
:1015400088B2FFF7C7FA4FF48071714806F043FD87
:101550004FF400716E4806F040FD6C484088401E14
:10156000C0F30F216B4806F03FFD8021684806F06C
:1015700034FD8021664806F02EFD4FF4007164486A
:1015800006F029FD61498989C91C88B2FFF7A2FAD2
:101590004FF480715E4806F01EFD4FF400715C4808
:1015A00006F01BFD59488078401EC1B2594806F02C
:1015B0001BFD8021564806F010FD8021544806F09E
:1015C0000AFD4FF40071524806F005FD27E14F492E
:1015D0004889FFF77FFA4FF480714D4806F0FBFC15
:1015E0004FF400714A4806F0F8FC0021494806F023
:1015F000FBFC8021464806F0F0FC8021444806F0C0
:10160000EAFC4FF40071424806F0E5FC4FF48071AB
:101610003F4806F0E0FC4FF400713D4806F0DDFC69
:1016200000213C4806F0E0FC8021394806F0D5FC5A
:101630008021374806F0CFFC4FF40071344806F0A3
:10164000CAFC4FF48071324806F0C5FC4FF40071BB
:101650002F4806F0C2FC2D480088401EC0F30F2121
:101660002C4806F0C1FC8021294806F0B6FC8021F8
:10167000274806F0B0FC4FF40071254806F0ABFC9B
:101680004FF48071224806F0A6FC4FF40071204808
:1016900006F0A3FC1D480078401EC1B21D4806F0AC
:1016A000A3FC80211A4806F098FC8021184806F017
:1016B00092FC4FF40071164806F08DFC134988899E
:1016C000FFF708FA4FF48071114806F084FC4FF4DC
:1016D00000710F4806F081FC00210E4806F084FCE2
:1016E00080210B4806F079FC8021094806F073FC44
:1016F0004FF40071064806F06EFC4FF48071044808
:1017000006F069FC4FF40071014805E07C00002000
:1017100000100140000C014006F05FFC0021FE4873
:1017200006F062FC8021FD4806F057FC8021FB4852
:1017300006F051FC4FF40071F84806F04CFC4FF4F1
:101740008071F64806F047FC4FF40071F34806F04C
:1017500044FCF3484088401EC0F30F21EE4806F0D9
:1017600043FC8021ED4806F038FC8021EB4806F070
:1017700032FC4FF40071E94806F02DFC4FF4807103
:10178000E64806F028FC4FF40071E44806F025FC1A
:10179000E3488078401EC1B2DF4806F025FC802176
:1017A000DE4806F01AFC8021DC4806F014FC4FF4F9
:1017B0000071DA4806F00FFC31E0082D1CD2DFE89A
:1017C00005F004070A0D0F12151844F0300413E059
:1017D00044F0100410E044F020040DE000BF0BE0E2
:1017E00044F0380408E044F0280405E044F018040C
:1017F00002E044F0080400BF00BFC948808848F6F2
:101800008911884204D1112746F24000044302E0C6
:10181000032744F4805421463846FFF7D2F9BDE847
:10182000F08170B504460D4629462046FFF724FA9C
:10183000FFF7F1F94FF48071B84806F0CCFB4FF494
:101840000071B64806F0C9FBB6480188B24806F0F8
:10185000CBFB8021B14806F0C0FB8021AF4806F0E9
:10186000BAFB4FF40071AD4806F0B5FB70BD70B522
:1018700004460D461646AA48808849F241318842FE
:1018800005D0A748808845F21031884275D1A44917
:101890004889FFF71FF94FF48071A04806F09BFBC1
:1018A0004FF400719D4806F098FB21129A4806F00B
:1018B0009BFB8021994806F090FB8021974806F019
:1018C0008AFB4FF40071954806F085FB4FF4807158
:1018D000924806F080FB4FF40071904806F07DFBC3
:1018E000E1B28D4806F080FB80218C4806F075FB44
:1018F00080218A4806F06FFB4FF40071874806F09C
:101900006AFB87498889FFF7E5F84FF480718348BF
:1019100006F061FB4FF40071804806F05EFB29126F
:101920007D4806F061FB80217C4806F056FB802153
:101930007A4806F050FB4FF40071784806F04BFBF4
:101940004FF48071754806F046FB4FF40071734800
:1019500006F043FBE9B2704806F046FB80216F4871
:1019600006F03BFB80216D4806F035FB4FF400711B
:101970006A4806F030FB2CE1FFE76948808845F2B1
:10198000105188427ED166494889FFF7A3F84FF489
:101990008071624806F01FFB4FF400715F4806F04B
:1019A0001CFB21125C4806F01FFB80215B4806F0FF
:1019B00014FB8021594806F00EFB4FF40071574884
:1019C00006F009FB56494989491C88B2FFF782F89D
:1019D0004FF48071514806F0FEFA4FF400714F4801
:1019E00006F0FBFAE1B24C4806F0FEFA80214B48C3
:1019F00006F0F3FA8021494806F0EDFA4FF4007141
:101A0000464806F0E8FA46498889FFF763F84FF43C
:101A10008071424806F0DFFA4FF400713F4806F04B
:101A2000DCFA29123C4806F0DFFA80213B4806F038
:101A3000D4FA8021394806F0CEFA4FF400713748C5
:101A400006F0C9FA36498989491C88B2FFF742F87D
:101A50004FF48071314806F0BEFA4FF400712F4800
:101A600006F0BBFAE9B22C4806F0BEFA80212B48FA
:101A700006F0B3FA8021294806F0ADFA4FF4007160
:101A8000264800E002E006F0A6FAA2E0244880889A
:101A900046F6040188427CD121488079012804D18E
:101AA0001F480088401E001B84B21D494889FFF76B
:101AB00011F84FF48071194806F08DFA4FF4007157
:101AC000164806F08AFA2112134806F08DFA802192
:101AD000124806F082FA8021104806F07CFA4FF492
:101AE00000710E4806F077FA4FF480710B4806F04B
:101AF00072FA4FF40071094806F06FFAE1B2064835
:101B000006F072FA8021054806F067FA8021034842
:101B100006F061FA08E00000000C014000100140EE
:101B20007C000020140000204FF40071FD4806F0F6
:101B300052FAFD498889FEF7CDFF4FF48071F948CC
:101B400006F049FA4FF40071F64806F046FA2912F9
:101B5000F64806F049FA8021F24806F03EFA802164
:101B6000F04806F038FA4FF40071EE4806F033FA08
:101B70004FF48071EB4806F02EFA4FF40071E948FB
:101B800006F02BFAE9B2E94806F02EFA8021E54882
:101B900000E00BE006F021FA8021E24806F01BFA93
:101BA0004FF40071DF4806F016FA12E0DE48807943
:101BB000012804D1DC480088401E001B84B2DA49A9
:101BC00048892146FEF7FDFFD74988892946FEF757
:101BD000F8FF4FF48071D34806F0FFF94FF400711D
:101BE000D04806F0FAF9D0480189D04806F0FCF94F
:101BF0008021CC4806F0F1F98021CA4806F0EBF9C3
:101C00004FF40071C74806F0E6F94FF48071C548FB
:101C100006F0E1F94FF40071C24806F0DEF93146F2
:101C2000C24806F0E1F98021BE4806F0D6F98021CD
:101C3000BC4806F0D0F94FF40071BA4806F0CBF971
:101C400070BD10B50446002C60D1B7498871F020F2
:101C500008804FF4A07048800846808849F24131DE
:101C600088420BD0B048808846F60401884205D0EF
:101C7000AD48808845F2103188421AD12C20AA49FB
:101C800008812A2048812B2088810846808846F6D2
:101C90000401884205D0A448808845F2103188426A
:101CA00006D14FF4A070A04908804FF4F07048802E
:101CB00095E09D48808848F68911884207D1222006
:101CC000994908814E2048814F20888187E09648B5
:101CD000808845F21051884210D14FF4305092491B
:101CE00008814FF4285048814FF42C5088814FF4DC
:101CF000F07008804FF44870488070E022208A49D4
:101D00000881202048812120888168E001208649BF
:101D100088714FF4A0700880F020488008468088C1
:101D200049F24131884205D07F48808845F2103120
:101D3000884207D12C207C4908812A2048812B2009
:101D4000888139E07848808846F60401884207D1C6
:101D50002C20754908812B2048812A2088812BE07E
:101D60007148808848F68911884207D122206E493F
:101D700008814F2048814E2088811DE06A48808874
:101D800045F21051884210D14FF430506649088115
:101D90004FF4285048814FF42C5088814FF44870FC
:101DA00008804FF4F070488006E022205E490881E8
:101DB00021204881202088815B48808846F60401E4
:101DC000884205D05848808845F21031884206D1B3
:101DD0004FF4F070544908804FF4A0704880002000
:101DE000FFF72FFA10BD2DE9FF5F04460D4616469A
:101DF0001F46A019401E86B2E819401E87B24A4805
:101E0000808849F2413188420BD04748808845F2AA
:101E10001031884205D04448808846F60401884243
:101E20007ED141494889FEF755FE4FF480713D4807
:101E300006F0D1F84FF400713A4806F0CEF82112BE
:101E40003A4806F0D1F88021364806F0C6F88021DD
:101E5000344806F0C0F84FF40071324806F0BBF881
:101E60004FF480712F4806F0B6F84FF400712D48FA
:101E700006F0B3F8E1B22D4806F0B6F88021294803
:101E800006F0ABF88021274806F0A5F84FF4007162
:101E9000244806F0A0F84FF48071224806F09BF821
:101EA0004FF400711F4806F098F831121F4806F0F1
:101EB0009BF880211B4806F090F88021194806F015
:101EC0008AF84FF40071174806F085F84FF48071D6
:101ED000144806F080F84FF40071124806F07DF8BF
:101EE000F1B2124806F080F880210E4806F075F82D
:101EF00080210C4806F06FF84FF40071094806F095
:101F00006AF809498889FEF7E5FD4FF480710548B4
:101F100006F061F84FF40071024806F05EF807E041
:101F200069E00000001001407C000020000C01402E
:101F30002912FE4806F058F88021FD4806F04DF8B9
:101F40008021FB4806F047F84FF40071F84806F08E
:101F500042F84FF48071F64806F03DF84FF40071F6
:101F6000F34806F03AF8E9B2F04806F03DF880216F
:101F7000EF4806F032F88021ED4806F02CF84FF4D7
:101F80000071EB4806F027F84FF48071E84806F03E
:101F900022F84FF40071E64806F01FF83912E348C2
:101FA00006F022F88021E24806F017F88021E04888
:101FB00006F011F84FF40071DD4806F00CF84FF40C
:101FC0008071DB4806F007F84FF40071D84806F03E
:101FD00004F8F9B2D54806F007F88021D44805F096
:101FE000FCFF8021D24805F0F6FF4FF40071D04885
:101FF00005F0F1FF53E1CF48808845F21051884247
:102000007DD1CC494889FEF765FD4FF48071C84801
:1020100005F0E1FF4FF40071C54805F0DEFF211225
:10202000C24805F0E1FF8021C14805F0D6FF8021BC
:10203000BF4805F0D0FF4FF40071BD4805F0CBFF5D
:10204000BC494989491C88B2FEF744FD4FF48071B0
:10205000B74805F0C0FF4FF40071B54805F0BDFF6B
:10206000E1B2B24805F0C0FF8021B14805F0B5FFEC
:102070008021AF4805F0AFFF4FF40071AC4805F088
:10208000AAFFAC494989891C88B2FEF723FD4FF4A9
:102090008071A74805F09FFF4FF40071A44805F038
:1020A0009CFF3112A14805F09FFF8021A04805F058
:1020B00094FF80219E4805F08EFF4FF400719C48EC
:1020C00005F089FF9B494989C91C88B2FEF702FDCA
:1020D0004FF48071964805F07EFF4FF400719448EC
:1020E00005F07BFFF1B2914805F07EFF802190481A
:1020F00005F073FF80218E4805F06DFF00E087E05A
:102100004FF400718A4805F066FF8A498889FEF716
:10211000E1FC4FF48071864805F05DFF4FF40071DB
:10212000834805F05AFF2912804805F05DFF8021A1
:102130007F4805F052FF80217D4805F04CFF4FF4A9
:1021400000717B4805F047FF7A498989491C88B2AC
:10215000FEF7C0FC4FF48071754805F03CFF4FF46A
:102160000071734805F039FFE9B2704805F03CFF93
:1021700080216F4805F031FF80216D4805F02BFF6D
:102180004FF400716A4805F026FF6A498989891C65
:1021900088B2FEF79FFC4FF48071654805F01BFF85
:1021A0004FF40071624805F018FF39125F4805F0DE
:1021B0001BFF80215E4805F010FF80215C4805F080
:1021C0000AFF4FF400715A4805F005FF5949898903
:1021D000C91C88B2FEF77EFC4FF48071544805F0AC
:1021E000FAFE4FF40071524805F0F7FEF9B24F487D
:1021F00005F0FAFE80214E4805F0EFFE80214C48A4
:1022000005F0E9FE4FF40071494805F0E4FE46E0B0
:102210004848807901280ED1A846B946454800882B
:10222000801B401E80B2009042480088001B401E68
:102230001FFA80FB03E0A046B1460095BB463D482F
:10224000808848F6891188420DD14FF0440A442015
:10225000039048EA09201FFA80F8C1464520029001
:102260004620019007E04FF0500A51200390522081
:1022700002905320019041465046FEF7A2FC494689
:102280000398FEF79EFC00990298FEF79AFC5946C7
:102290000198FEF796FC29462046FEF7EDFCBDE8C6
:1022A000FF9F70B5044600262248058840884543B4
:1022B0002048808846F60401884216D11D4880795E
:1022C000012812D100201B4988712A2048812B2027
:1022D000888100210846FEF7CFFC0120154988714E
:1022E0002B2048812A20888103E000210846FEF740
:1022F000C3FCFEF790FC002622E04FF480710C48EE
:1023000005F069FE4FF40071094805F066FE2146AC
:10231000064805F069FE8021054805F05EFE802133
:10232000034805F058FE4FF4007105E0000C014031
:10233000001001407C000020FC4805F04CFE761C9B
:10234000AE42DAD370BD08B50121192006F052F86B
:102350000121F74805F063FE4FF4F860ADF8000086
:1023600010208DF8030003208DF802006946EF4825
:1023700005F084FD4FF4F861EC4805F02CFE4FF6B3
:10238000FF70ADF800006946EA4805F077FD4FF6AA
:10239000FF71E84805F01FFE322005F0BAFB01216D
:1023A0000020FEF70EFC322005F0B3FB0020FEF704
:1023B0002AFCE149888008468088FF280ADB084615
:1023C00080884FF6FF71884204D0DB488088B0F5E2
:1023D000134F7CD1D320FEF77DFBFEF7B7FBFEF752
:1023E000B5FBFEF7B3FBD4498880084680884FF6DA
:1023F000FF7101EA0020D0498880FEF7A7FBCE4993
:1024000089880843CC4988800846808849F2413150
:1024100088426CD0BF20FEF75DFBFEF797FBFEF70E
:1024200095FBFEF793FBFEF791FBC34988800846B6
:1024300080884FF6FF7101EA0020BF498880FEF7CF
:1024400085FBBD4989880843BB4988800846808848
:1024500046F6040188424AD0D420FEF73BFBFEF743
:1024600075FBFEF773FBFEF771FBB34988800846E6
:1024700080884FF6FF7101EA0020AF498880FEF79F
:1024800065FBAD4989880843AB4988800846808848
:1024900045F2103188422AD04FF45A40FEF71AFB19
:1024A000FEF754FB4FF45B40FEF714FBFEF74EFBC8
:1024B000A1498880084680884FF6FF7101EA002014
:1024C0009D4988804FF45C40FEF704FB00E00EE07D
:1024D000FEF73CFB9849898808439749888008465D
:1024E0008088B0F5004F02D145F2105088809248A4
:1024F000808849F2413188427ED1CF20FEF7EAFA46
:102500000020FEF705FBC120FEF702FB3020FEF79E
:10251000FFFAED20FEF7DEFA6420FEF7F9FA032059
:10252000FEF7F6FA1220FEF7F3FA8120FEF7F0FA32
:10253000E820FEF7CFFA8520FEF7EAFA1020FEF732
:10254000E7FA7A20FEF7E4FACB20FEF7C3FA392047
:10255000FEF7DEFA2C20FEF7DBFA0020FEF7D8FAB1
:102560003420FEF7D5FA0220FEF7D2FAF720FEF764
:10257000B1FA2020FEF7CCFAEA20FEF7ABFA0020F1
:10258000FEF7C6FA0020FEF7C3FAC020FEF7A2FA53
:102590001B20FEF7BDFAC120FEF79CFA0120FEF7D2
:1025A000B7FAC520FEF796FA3020FEF7B1FA3020D0
:1025B000FEF7AEFAC720FEF78DFAB720FEF7A8FAAD
:1025C0003620FEF787FA4820FEF7A2FA3A20FEF7F7
:1025D00081FA5520FEF79CFAB120FEF77BFA002025
:1025E000FEF796FA1A20FEF793FAB620FEF772FA73
:1025F0000A20FEF78DFA00E0A0E0A220FEF788FA9C
:10260000F220FEF767FA0020FEF782FA2620FEF796
:1026100061FA0120FEF77CFAE020FEF75BFA0F205A
:10262000FEF776FA2A20FEF773FA2820FEF770FAF2
:102630000820FEF76DFA0E20FEF76AFA0820FEF772
:1026400067FA5420FEF764FAA920FEF761FA4320E6
:10265000FEF75EFA0A20FEF75BFA0F20FEF758FA43
:102660000020FEF755FA0020FEF752FA0020FEF790
:102670004FFA0020FEF74CFAE120FEF72BFA00207B
:10268000FEF746FA1520FEF743FA1720FEF740FA48
:102690000720FEF73DFA1120FEF73AFA0620FEF772
:1026A00037FA2B20FEF734FA5620FEF731FA3C2099
:1026B000FEF72EFA0520FEF72BFA1020FEF728FA77
:1026C0000F20FEF725FA3F20FEF722FA3F20FEF703
:1026D0001FFA0F20FEF71CFA2B20FEF7FBF9002053
:1026E000FEF716FA0020FEF713FA0120FEF710FAA3
:1026F0003F20FEF70DFA2A20FEF7ECF90020FEF746
:1027000007FA0020FEF704FA0020FEF701FAEF2096
:10271000FEF7FEF91120FEF7DDF9782005F0F9F952
:102720002920FEF7D7F903F005BB00000010014097
:1027300000023000000C01407C000020FE48808830
:1027400046F6040188427CD11120FEF7C3F914201B
:1027500005F0DFF9D020FEF7BDF90720FEF7D8F924
:102760004220FEF7D5F91D20FEF7D2F9D120FEF761
:10277000B1F90020FEF7CCF91A20FEF7C9F90920BB
:10278000FEF7C6F9D220FEF7A5F90120FEF7C0F941
:102790002220FEF7BDF9C020FEF79CF91020FEF7BD
:1027A000B7F93B20FEF7B4F90020FEF7B1F902209B
:1027B000FEF7AEF91120FEF7ABF9C520FEF78AF956
:1027C0000320FEF7A5F9C820FEF784F90020FEF7E4
:1027D0009FF92520FEF79CF92120FEF799F90520A5
:1027E000FEF796F90020FEF793F90A20FEF790F91C
:1027F0006520FEF78DF92520FEF78AF97720FEF790
:1028000087F95020FEF784F90F20FEF781F90020A8
:10281000FEF77EF9F820FEF75DF90120FEF778F962
:10282000FE20FEF757F90020FEF772F90220FEF7AE
:102830006FF92020FEF74EF93620FEF74BF90820FD
:1028400000E02CE0FEF764F93A20FEF743F955204A
:10285000FEF75EF92B20FEF73DF90020FEF758F950
:102860000020FEF755F90120FEF752F93F20FEF750
:102870004FF92A20FEF72EF90020FEF749F9002033
:10288000FEF746F90120FEF743F9DF20FEF740F995
:10289000782005F03EF92920FEF71CF943E7A64809
:1028A000808845F21031884240F07C87ED20FEF7A9
:1028B00011F90120FEF72CF9FE20FEF729F9EE2090
:1028C000FEF708F9DE20FEF723F92120FEF720F9B4
:1028D000F120FEF7FFF80120FEF71AF9DF20FEF7DE
:1028E000F9F81020FEF714F9C420FEF7F3F88F2052
:1028F000FEF70EF9C620FEF7EDF80020FEF708F906
:10290000E220FEF705F9E220FEF702F9E220FEF7E9
:10291000FFF8BF20FEF7DEF8AA20FEF7F9F8B02096
:10292000FEF7D8F80D20FEF7F3F80020FEF7F0F8D8
:102930000D20FEF7EDF80020FEF7EAF81120FEF773
:10294000E7F80020FEF7E4F81920FEF7E1F8002090
:10295000FEF7DEF82120FEF7DBF80020FEF7D8F8BE
:102960002D20FEF7D5F80020FEF7D2F83D20FEF727
:10297000CFF80020FEF7CCF85D20FEF7C9F8002064
:10298000FEF7C6F85D20FEF7C3F80020FEF7C0F89A
:10299000B120FEF79FF88020FEF7BAF80020FEF77E
:1029A000B7F88B20FEF7B4F80020FEF7B1F89620B8
:1029B000FEF7AEF80020FEF7ABF8B220FEF78AF87B
:1029C0000020FEF7A5F80020FEF7A2F80220FEF78F
:1029D0009FF80020FEF79CF80320FEF799F80020EE
:1029E000FEF796F8B320FEF775F80020FEF790F892
:1029F0000020FEF78DF80020FEF78AF80020FEF791
:102A000087F80020FEF784F80020FEF781F8002008
:102A1000FEF77EF80020FEF77BF80020FEF778F83E
:102A20000020FEF775F80020FEF772F80020FEF790
:102A30006FF80020FEF76CF80020FEF769F8002020
:102A4000FEF766F80020FEF763F80020FEF760F856
:102A50000020FEF75DF80020FEF75AF80020FEF790
:102A600057F80020FEF754F80020FEF751F8002038
:102A7000FEF74EF80020FEF74BF8B420FEF72AF8D8
:102A80008B20FEF745F80020FEF742F89620FEF76F
:102A90003FF80020FEF73CF8A120FEF739F80020AF
:102AA000FEF736F8B520FEF715F80220FEF730F8ED
:102AB0000020FEF72DF80320FEF72AF80020FEF78D
:102AC00027F80420FEF724F80020FEF721F8B620AE
:102AD000FEF700F80020FEF71BF80020FEF718F8BC
:102AE000B720FDF7F7FF0020FEF712F80020FEF7F1
:102AF0000FF83F20FEF70CF80020FEF709F85E20E3
:102B0000FEF706F80020FEF703F86420FEF700F851
:102B10000020FDF7FDFF8C20FDF7FAFF0020FDF7F8
:102B2000F7FFAC20FDF7F4FF0020FDF7F1FFDC20FC
:102B3000FDF7EEFF002001E07C000020FDF7E8FF3C
:102B40007020FDF7E5FF0020FDF7E2FF9020FDF784
:102B5000DFFF0020FDF7DCFFEB20FDF7D9FF0020B1
:102B6000FDF7D6FFDC20FDF7D3FF0020FDF7D0FFF7
:102B7000B820FDF7AFFF0020FDF7CAFF0020FDF7EA
:102B8000C7FF0020FDF7C4FF0020FDF7C1FF0020B4
:102B9000FDF7BEFF0020FDF7BBFF0020FDF7B8FFEB
:102BA0000020FDF7B5FFBA20FDF794FF2420FDF7C4
:102BB000AFFF0020FDF7ACFF0020FDF7A9FF0020CC
:102BC000FDF7A6FFC120FDF785FF2020FDF7A0FF40
:102BD0000020FDF79DFF5420FDF79AFF0020FDF730
:102BE00097FFFF20FDF794FF0020FDF791FFC22023
:102BF000FDF770FF0A20FDF78BFF0020FDF788FF2F
:102C00000420FDF785FF0020FDF782FFC320FDF7BC
:102C100061FF3C20FDF77CFF0020FDF779FF3A20A3
:102C2000FDF776FF0020FDF773FF3920FDF770FFF9
:102C30000020FDF76DFF3720FDF76AFF0020FDF74C
:102C400067FF3C20FDF764FF0020FDF761FF3620A1
:102C5000FDF75EFF0020FDF75BFF3220FDF758FF18
:102C60000020FDF755FF2F20FDF752FF0020FDF754
:102C70004FFF2C20FDF74CFF0020FDF749FF2920D6
:102C8000FDF746FF0020FDF743FF2620FDF740FF3C
:102C90000020FDF73DFF2420FDF73AFF0020FDF75F
:102CA00037FF2420FDF734FF0020FDF731FF2320FC
:102CB000FDF72EFF0020FDF72BFF3C20FDF728FF3E
:102CC0000020FDF725FF3620FDF722FF0020FDF74D
:102CD0001FFF3220FDF71CFF0020FDF719FF2F20FA
:102CE000FDF716FF0020FDF713FF2C20FDF710FF66
:102CF0000020FDF70DFF2920FDF70AFF0020FDF75A
:102D000007FF2620FDF704FF0020FDF701FF242028
:102D1000FDF7FEFE0020FDF7FBFE2420FDF7F8FE88
:102D20000020FDF7F5FE2320FDF7F2FE0020FDF761
:102D3000EFFEC420FDF7CEFE6220FDF7E9FE002085
:102D4000FDF7E6FE0520FDF7E3FE0020FDF7E0FEBF
:102D50008420FDF7DDFE0020FDF7DAFEF020FDF710
:102D6000D7FE0020FDF7D4FE1820FDF7D1FE00208D
:102D7000FDF7CEFEA420FDF7CBFE0020FDF7C8FE38
:102D80001820FDF7C5FE0020FDF7C2FE5020FDF71C
:102D9000BFFE0020FDF7BCFE0C20FDF7B9FE0020B1
:102DA000FDF7B6FE1720FDF7B3FE0020FDF7B0FEDD
:102DB0009520FDF7ADFE0020FDF7AAFEF320FDF7FC
:102DC000A7FE0020FDF7A4FEE620FDF7A1FE0020EF
:102DD000FDF79EFEC520FDF77DFE3220FDF798FE33
:102DE0000020FDF795FE4420FDF792FE0020FDF740
:102DF0008FFE6520FDF78CFE0020FDF789FE762012
:102E0000FDF786FE0020FDF783FE8820FDF780FE9B
:102E10000020FDF77DFEC620FDF75CFE2020FDF7BB
:102E200077FE0020FDF774FE1720FDF771FE0020ED
:102E3000FDF76EFE0120FDF76BFE0020FDF768FE3A
:102E4000C720FDF747FE0020FDF762FE0020FDF7DA
:102E50005FFE0020FDF75CFE0020FDF759FEC82054
:102E6000FDF738FE0020FDF753FE0020FDF750FE71
:102E70000020FDF74DFE0020FDF74AFEC920FDF7BA
:102E800029FE0020FDF744FE0020FDF741FE002052
:102E9000FDF73EFE0020FDF73BFE0020FDF738FE6B
:102EA0000020FDF735FE0020FDF732FE0020FDF783
:102EB0002FFE0020FDF72CFE0020FDF729FE00204C
:102EC000FDF726FE0020FDF723FE0020FDF720FE83
:102ED0000020FDF71DFE0020FDF71AFE0020FDF783
:102EE00017FEE020FDF7F6FD1620FDF711FE00208D
:102EF000FDF70EFE1C20FDF70BFE0020FDF708FE7F
:102F00002120FDF705FE0020FDF702FE3620FDF72B
:102F1000FFFD0020FDF7FCFD4620FDF7F9FD002038
:102F2000FDF7F6FD5220FDF7F3FD0020FDF7F0FD63
:102F30006420FDF7EDFD0020FDF7EAFD7A20FDF7A6
:102F4000E7FD0020FDF7E4FD8B20FDF7E1FD00200B
:102F5000FDF7DEFD9920FDF7DBFD0020FDF7D8FD34
:102F6000A820FDF7D5FD0020FDF7D2FDB920FDF723
:102F7000CFFD0020FDF7CCFDC420FDF7C9FD0020EA
:102F8000FDF7C6FDCA20FDF7C3FD0020FDF7C0FD1B
:102F9000D220FDF7BDFD0020FDF7BAFDD920FDF7D9
:102FA000B7FD0020FDF7B4FDE020FDF7B1FD0020E6
:102FB000FDF7AEFDF320FDF7ABFD0020FDF7A8FD0A
:102FC000E120FDF787FD1620FDF7A2FD0020FDF7AB
:102FD0009FFD1C20FDF79CFD0020FDF799FD2220A0
:102FE000FDF796FD0020FDF793FD3620FDF790FDDF
:102FF0000020FDF78DFD4520FDF78AFD0020FDF73F
:1030000087FD5220FDF784FD0020FDF781FD64203F
:10301000FDF77EFD0020FDF77BFD7A20FDF778FDB2
:103020000020FDF775FD8B20FDF772FD0020FDF7F8
:103030006FFD9920FDF76CFD0020FDF769FDA820CC
:10304000FDF766FD0020FDF763FDB920FDF760FD8B
:103050000020FDF75DFDC420FDF75AFD0020FDF7BF
:1030600057FDCA20FDF754FD0020FDF751FDD22089
:10307000FDF74EFD0020FDF74BFDD820FDF748FD84
:103080000020FDF745FDE020FDF742FD0020FDF7A3
:103090003FFDF320FDF73CFD0020FDF739FDE22068
:1030A000FDF718FD0520FDF733FD0020FDF730FD8D
:1030B0000B20FDF72DFD0020FDF72AFD1B20FDF75D
:1030C00027FD0020FDF724FD3420FDF721FD002021
:1030D000FDF71EFD4420FDF71BFD0020FDF718FD48
:1030E0004F20FDF715FD0020FDF712FD6120FDF7D3
:1030F0000FFD0020FDF70CFD7920FDF709FD0020F4
:10310000FDF706FD8820FDF703FD0020FDF700FD1B
:103110009720FDF7FDFC0020FDF7FAFCA620FDF747
:10312000F7FC0020FDF7F4FCB720FDF7F1FC0020D0
:10313000FDF7EEFCC220FDF7EBFC0020FDF7E8FCFC
:10314000C720FDF7E5FC0020FDF7E2FCD120FDF7EC
:10315000DFFC0020FDF7DCFCD620FDF7D9FC0020C9
:10316000FDF7D6FCDD20FDF7D3FC0020FDF7D0FCF9
:10317000F320FDF7CDFC0020FDF7CAFCE320FDF7AE
:10318000A9FC0520FDF7C4FC0020FDF7C1FC0A20C6
:10319000FDF7BEFC0020FDF7BBFC1C20FDF7B8FCD2
:1031A0000020FDF7B5FC3320FDF7B2FC0020FDF751
:1031B000AFFC4420FDF7ACFC0020FDF7A9FC50203B
:1031C000FDF7A6FC0020FDF7A3FC6220FDF7A0FCA4
:1031D0000020FDF79DFC7820FDF79AFC0020FDF70C
:1031E00097FC8820FDF794FC0020FDF791FC9720C8
:1031F000FDF78EFC0020FDF78BFCA620FDF788FC78
:103200000020FDF785FCB720FDF782FC0020FDF7CC
:103210007FFCC220FDF77CFC0020FDF779FCC72075
:10322000FDF776FC0020FDF773FCD120FDF770FC64
:103230000020FDF76DFCD520FDF76AFC0020FDF7AE
:1032400067FCDD20FDF764FC0020FDF761FCF32046
:10325000FDF75EFC0020FDF75BFCE420FDF73AFC87
:103260000120FDF755FC0020FDF752FC0120FDF781
:103270004FFC0020FDF74CFC0220FDF749FC00202C
:10328000FDF746FC2A20FDF743FC0020FDF740FC3B
:103290003C20FDF73DFC0020FDF73AFC4B20FDF7FC
:1032A00037FC0020FDF734FC5D20FDF731FC0020E9
:1032B000FDF72EFC7420FDF72BFC0020FDF728FC09
:1032C0008420FDF725FC0020FDF722FC9320FDF76C
:1032D0001FFC0020FDF71CFCA220FDF719FC0020BC
:1032E000FDF716FCB320FDF713FC0020FDF710FCE2
:1032F000BE20FDF70DFC0020FDF70AFCC420FDF701
:1033000007FC0020FDF704FCCD20FDF701FC0020A8
:10331000FDF7FEFBD320FDF7FBFB0020FDF7F8FBDC
:10332000DD20FDF7F5FB0020FDF7F2FBF320FDF7B4
:10333000EFFB0020FDF7ECFBE520FDF7CBFB0020C9
:10334000FDF7E6FB0020FDF7E3FB0020FDF7E0FBC7
:103350000020FDF7DDFB0220FDF7DAFB0020FDF782
:10336000D7FB2920FDF7D4FB0020FDF7D1FB3C2043
:10337000FDF7CEFB0020FDF7CBFB4B20FDF7C8FB94
:103380000020FDF7C5FB5D20FDF7C2FB0020FDF727
:10339000BFFB7420FDF7BCFB0020FDF7B9FB8420C8
:1033A000FDF7B6FB0020FDF7B3FB9320FDF7B0FB64
:1033B0000020FDF7ADFBA220FDF7AAFB0020FDF7E2
:1033C000A7FBB320FDF7A4FB0020FDF7A1FBBE2067
:1033D000FDF79EFB0020FDF79BFBC420FDF798FB4B
:1033E0000020FDF795FBCD20FDF792FB0020FDF7B7
:1033F0008FFBD320FDF78CFB0020FDF789FBDC2041
:10340000FDF786FB0020FDF783FBF320FDF780FB33
:103410000020FDF77DFBE620FDF75CFB1120FDF7AA
:1034200077FB0020FDF774FB3420FDF771FB0020D3
:10343000FDF76EFB5620FDF76BFB0020FDF768FBE8
:103440007620FDF765FB0020FDF762FB7720FDF796
:103450005FFB0020FDF75CFB6620FDF759FB0020B9
:10346000FDF756FB8820FDF753FB0020FDF750FBCE
:103470009920FDF74DFB0020FDF74AFBBB20FDF72F
:1034800047FB0020FDF744FB9920FDF741FB00209E
:10349000FDF73EFB6620FDF73BFB0020FDF738FB08
:1034A0005520FDF735FB0020FDF732FB5520FDF7D9
:1034B0002FFB0020FDF72CFB4520FDF729FB00200A
:1034C000FDF726FB4320FDF723FB0020FDF720FB43
:1034D0004420FDF71DFB0020FDF71AFBE720FDF758
:1034E000F9FA3220FDF714FB0020FDF711FB5520FF
:1034F000FDF70EFB0020FDF70BFB7620FDF708FB28
:103500000020FDF705FB6620FDF702FB0020FDF71C
:10351000FFFA6720FDF7FCFA0020FDF7F9FA6720B3
:10352000FDF7F6FA0020FDF7F3FA8720FDF7F0FA31
:103530000020FDF7EDFA9920FDF7EAFA0020FDF7EB
:10354000E7FABB20FDF7E4FA0020FDF7E1FA992045
:10355000FDF7DEFA0020FDF7DBFA7720FDF7D8FA59
:103560000020FDF7D5FA4420FDF7D2FA0020FDF740
:10357000CFFA5620FDF7CCFA0020FDF7C9FA232038
:10358000FDF7C6FA0020FDF7C3FA3320FDF7C0FAB5
:103590000020FDF7BDFA4520FDF7BAFA0020FDF73F
:1035A000B7FAE820FDF796FA0020FDF7B1FA0020FF
:1035B000FDF7AEFA9920FDF7ABFA0020FDF7A8FA67
:1035C0008720FDF7A5FA0020FDF7A2FA8820FDF775
:1035D0009FFA0020FDF79CFA7720FDF799FA00206A
:1035E000FDF796FA6620FDF793FA0020FDF790FAB2
:1035F0008820FDF78DFA0020FDF78AFAAA20FDF752
:1036000087FA0020FDF784FABB20FDF781FA00203D
:10361000FDF77EFA9920FDF77BFA0020FDF778FA96
:103620006620FDF775FA0020FDF772FA5520FDF7C8
:103630006FFA0020FDF76CFA5520FDF769FA0020BB
:10364000FDF766FA4420FDF763FA0020FDF760FA03
:103650004420FDF75DFA0020FDF75AFA5520FDF7EA
:1036600057FA0020FDF754FAE920FDF733FAAA20B3
:10367000FDF74EFA0020FDF74BFA0020FDF748FA5F
:103680000020FDF745FA0020FDF724FAAA20FDF7F7
:103690003FFACF20FDF71EFA0020FDF739FA00208F
:1036A000FDF736FA0020FDF733FA0020FDF730FA77
:1036B0000020FDF72DFA0020FDF72AFA0020FDF783
:1036C00027FA0020FDF724FA0020FDF721FA002058
:1036D000FDF71EFA0020FDF71BFA0020FDF718FA8F
:1036E0000020FDF715FA0020FDF712FA0020FDF783
:1036F0000FFA0020FDF70CFA0020FDF709FAF02080
:10370000FDF7E8F90020FDF703FA5020FDF700FA75
:103710000020FDF7FDF90020FDF7FAF90020FDF784
:10372000F7F9F320FDF7D6F90020FDF7F1F9F920BC
:10373000FDF7D0F90620FDF7EBF91020FDF7E8F9C9
:103740002920FDF7E5F90020FDF7E2F93A20FDF721
:10375000C1F95520FDF7DCF91120FDF7BBF9642014
:1037600004F0D7F92920FDF7B5F93520FDF7B2F9B6
:103770000020FDF7CDF95120FDF7ACF9FF20FDF752
:10378000C7F95320FDF7A6F92C20FDF7C1F9552004
:10379000FDF7A0F98220FDF7BBF92C20FDF79AF97F
:1037A00002F0C8BAFE48808845F2105188427DD1A7
:1037B00055214FF47040FDF704FAAA214FF20100A1
:1037C000FDF7FFF952214FF20200FDF7FAF9082147
:1037D0004FF20300FDF7F5F901214FF20400FDF768
:1037E000F0F90D214FF43040FDF7EBF90D214BF2CC
:1037F0000100FDF7E6F90D214BF20200FDF7E1F9BA
:1038000034214FF43640FDF7DCF934214BF20160EE
:10381000FDF7D7F934214BF20260FDF7D2F90D2103
:103820004FF43140FDF7CDF90D214BF20110FDF7BA
:10383000C8F90D214BF20210FDF7C3F934214FF402
:103840003740FDF7BEF934214BF20170FDF7B9F9AD
:1038500034214BF20270FDF7B4F900214FF43240ED
:10386000FDF7AFF900214BF20120FDF7AAF9002185
:103870004BF20220FDF7A5F924214FF43840FDF763
:10388000A0F924214BF60100FDF79BF924214BF60A
:103890000200FDF796F901214FF43F40FDF791F941
:1038A0000F214FF43340FDF78CF900E0FDE30F21C9
:1038B0004BF20130FDF785F90F214BF20230FDF795
:1038C00080F934214FF43940FDF77BF934214BF670
:1038D0000110FDF776F934214BF60210FDF771F96E
:1038E00008214FF43540FDF76CF908214BF20150E7
:1038F000FDF767F908214BF20250FDF762F9032149
:103900004FF44240FDF75DF924214FF43A40FDF7B2
:1039100058F924214BF60120FDF753F924214BF6E9
:103920000220FDF74EF900214FF43C40FDF749F924
:1039300078214BF60140FDF744F900214BF6024097
:10394000FDF73FF900214FF43D40FDF73AF97821AA
:103950004BF60150FDF735F900214BF60250FDF70B
:1039600030F900214FF43E40FDF72BF964214BF66E
:103970000160FDF726F900214FF45140FDF721F9D0
:1039800033214DF20110FDF71CF900214DF2021018
:10399000FDF717F934214DF20310FDF712F900215C
:1039A0004DF20410FDF70DF93A214DF20510FDF727
:1039B00008F900214DF20610FDF703F94A214DF2F6
:1039C0000710FDF7FEF800214DF20810FDF7F9F899
:1039D0005C214DF20910FDF7F4F800214DF20A10B8
:1039E000FDF7EFF881214DF20B10FDF7EAF8002109
:1039F0004DF20C10FDF7E5F8A6214DF20D10FDF784
:103A0000E0F800214DF20E10FDF7DBF8E5214DF254
:103A10000F10FDF7D6F801214DF21010FDF7D1F887
:103A200013214DF21110FDF7CCF801214DF21210C7
:103A3000FDF7C7F854214DF21310FDF7C2F801212C
:103A40004DF21410FDF7BDF882214DF21510FDF76F
:103A5000B8F801214DF21610FDF7B3F8CA214DF266
:103A60001710FDF7AEF802214DF21810FDF7A9F876
:103A700000214DF21910FDF7A4F802214DF21A10A1
:103A8000FDF79FF801214DF21B10FDF79AF8022176
:103A90004DF21C10FDF795F834214DF21D10FDF785
:103AA00090F802214DF21E10FDF78BF867214DF2C0
:103AB0001F10FDF786F802214DF22010FDF781F866
:103AC00084214DF22110FDF77CF802214DF22210E5
:103AD000FDF777F8A4214DF22310FDF772F80221CB
:103AE0004DF22410FDF76DF8B7214DF22510FDF7CA
:103AF00068F802214DF22610FDF763F8CF214DF250
:103B00002710FDF75EF802214DF22810FDF759F855
:103B1000DE214DF22910FDF754F802214DF22A1052
:103B2000FDF74FF8F2214DF22B10FDF74AF8022174
:103B30004DF22C10FDF745F8FE214DF22D10FDF74A
:103B400040F803214DF22E10FDF73BF810214DF205
:103B50002F10FDF736F803214DF23010FDF731F844
:103B600033214DF23110FDF72CF803214DF23210C4
:103B7000FDF727F86D214DF23310FDF722F80021F3
:103B80004FF45240FDF71DF833214DF20120FDF7AF
:103B900018F800214DF20220FDF713F8342101E05E
:103BA0007C0000204DF20320FDF70BF800214DF2C0
:103BB0000420FDF706F83A214DF20520FDF701F843
:103BC00000214DF20620FCF7FCFF4A214DF20720B0
:103BD000FCF7F7FF00214DF20820FCF7F2FF5C2113
:103BE0004DF20920FCF7EDFF00214DF20A20FCF711
:103BF000E8FF81214DF20B20FCF7E3FF00214DF29D
:103C00000C20FCF7DEFFA6214DF20D20FCF7D9FFBA
:103C100000214DF20E20FCF7D4FFE5214DF20F20DC
:103C2000FCF7CFFF01214DF21020FCF7CAFF132152
:103C30004DF21120FCF7C5FF01214DF21220FCF7D7
:103C4000C0FF54214DF21320FCF7BBFF01214DF2C0
:103C50001420FCF7B6FF82214DF21520FCF7B1FFCE
:103C600001214DF21620FCF7ACFFCA214DF21720BE
:103C7000FCF7A7FF02214DF21820FCF7A2FF00215C
:103C80004DF21920FCF79DFF02214DF21A20FCF79E
:103C900098FF01214DF21B20FCF793FF02214DF20A
:103CA0001C20FCF78EFF34214DF21D20FCF789FF0C
:103CB00002214DF21E20FCF784FF67214DF21F20E8
:103CC000FCF77FFF02214DF22020FCF77AFF8421D0
:103CD0004DF22120FCF775FF02214DF22220FCF766
:103CE00070FFA4214DF22320FCF76BFF02214DF25F
:103CF0002420FCF766FFB7214DF22520FCF761FF79
:103D000002214DF22620FCF75CFFCF214DF2272047
:103D1000FCF757FF02214DF22820FCF752FFDE216D
:103D20004DF22920FCF74DFF02214DF22A20FCF72D
:103D300048FFF2214DF22B20FCF743FF02214DF208
:103D40002C20FCF73EFFFE214DF22D20FCF739FF21
:103D500003214DF22E20FCF734FF10214DF22F20CD
:103D6000FCF72FFF03214DF23020FCF72AFF33210F
:103D70004DF23120FCF725FF03214DF23220FCF7F4
:103D800020FF6D214DF23320FCF71BFF00214FF483
:103D90005340FCF716FF33214DF20130FCF711FFC1
:103DA00000214DF20230FCF70CFF34214DF20330BC
:103DB000FCF707FF00214DF20430FCF702FF3A2127
:103DC0004DF20530FCF7FDFE00214DF20630FCF708
:103DD000F8FE4A214DF20730FCF7F3FE00214DF2C8
:103DE0000830FCF7EEFE5C214DF20930FCF7E9FEED
:103DF00000214DF20A30FCF7E4FE81214DF20B3038
:103E0000FCF7DFFE00214DF20C30FCF7DAFEA621B4
:103E10004DF20D30FCF7D5FE00214DF20E30FCF7CF
:103E2000D0FEE5214DF20F30FCF7CBFE01214DF223
:103E30001030FCF7C6FE13214DF21130FCF7C1FE25
:103E400001214DF21230FCF7BCFE54214DF213302B
:103E5000FCF7B7FE01214DF21430FCF7B2FE8221CF
:103E60004DF21530FCF7ADFE01214DF21630FCF796
:103E7000A8FECA214DF21730FCF7A3FE02214DF235
:103E80001830FCF79EFE00214DF21930FCF799FE28
:103E900002214DF21A30FCF794FE01214DF21B3045
:103EA000FCF78FFE02214DF21C30FCF78AFE342114
:103EB0004DF21D30FCF785FE02214DF21E30FCF75D
:103EC00080FE67214DF21F30FCF77BFE02214DF290
:103ED0002030FCF776FE84214DF22130FCF771FE94
:103EE00002214DF22230FCF76CFEA4214DF223306A
:103EF000FCF767FE02214DF22430FCF762FEB72189
:103F00004DF22530FCF75DFE02214DF22630FCF724
:103F100058FECF214DF22730FCF753FE02214DF21F
:103F20002830FCF74EFEDE214DF22930FCF749FE29
:103F300002214DF22A30FCF744FEF2214DF22B30E3
:103F4000FCF73FFE02214DF22C30FCF73AFEFE2139
:103F50004DF22D30FCF735FE03214DF22E30FCF7EB
:103F600030FE10214DF22F30FCF72BFE03214DF2D5
:103F70003030FCF726FE33214DF23130FCF721FEC4
:103F800003214DF23230FCF71CFE6D214DF233302F
:103F9000FCF717FE00214FF45440FCF712FE3321CA
:103FA0004DF20140FCF70DFE00214DF20240FCF7FE
:103FB00008FE34214DF20340FCF703FE00214DF2D0
:103FC0000440FCF7FEFD3A214DF20540FCF7F9FDF7
:103FD00000214DF20640FCF7F4FD4A214DF2074066
:103FE000FCF7EFFD00214DF20840FCF7EAFD5C21F3
:103FF0004DF20940FCF7E5FD00214DF20A40FCF7C7
:10400000E0FD81214DF20B40FCF7DBFD00214DF27C
:104010000C40FCF7D6FDA6214DF20D40FCF7D1FD7A
:1040200000214DF20E40FCF7CCFDE5214DF20F4092
:10403000FCF7C7FD01214DF21040FCF7C2FD132132
:104040004DF21140FCF7BDFD01214DF21240FCF78D
:10405000B8FD54214DF21340FCF7B3FD01214DF2A0
:104060001440FCF7AEFD82214DF21540FCF7A9FD8E
:1040700001214DF21640FCF7A4FDCA214DF2174074
:10408000FCF79FFD02214DF21840FCF79AFD00213C
:104090004DF21940FCF795FD02214DF21A40FCF754
:1040A00090FD01214DF21B4000E006E3FCF789FD85
:1040B00002214DF21C40FCF784FD34214DF21D40DD
:1040C000FCF77FFD02214DF21E40FCF77AFD6721CF
:1040D0004DF21F40FCF775FD02214DF22040FCF728
:1040E00070FD84214DF22140FCF76BFD02214DF261
:1040F0002240FCF766FDA4214DF22340FCF761FD50
:1041000002214DF22440FCF75CFDB7214DF2254021
:10411000FCF757FD02214DF22640FCF752FDCF215E
:104120004DF22740FCF74DFD02214DF22840FCF7EF
:1041300048FDDE214DF22940FCF743FD02214DF2FE
:104140002A40FCF73EFDF2214DF22B40FCF739FDF1
:1041500002214DF22C40FCF734FDFE214DF22D40A2
:10416000FCF72FFD03214DF22E40FCF72AFD102114
:104170004DF22F40FCF725FD03214DF23040FCF7B6
:1041800020FD33214DF23140FCF71BFD03214DF2A0
:104190003240FCF716FD6D214DF23340FCF711FD66
:1041A00000214FF45540FCF70CFD33214DF2015036
:1041B000FCF707FD00214DF20250FCF702FD34210F
:1041C0004DF20350FCF7FDFC00214DF20450FCF7CA
:1041D000F8FC3A214DF20550FCF7F3FC00214DF2BA
:1041E0000650FCF7EEFC4A214DF20750FCF7E9FCC3
:1041F00000214DF20850FCF7E4FC5C214DF209501F
:10420000FCF7DFFC00214DF20A50FCF7DAFC8121BB
:104210004DF20B50FCF7D5FC00214DF20C50FCF791
:10422000D0FCA6214DF20D50FCF7CBFC00214DF245
:104230000E50FCF7C6FCE5214DF20F50FCF7C1FC17
:1042400001214DF21050FCF7BCFC13214DF211502E
:10425000FCF7B7FC01214DF21250FCF7B2FC5421DF
:104260004DF21350FCF7ADFC01214DF21450FCF758
:10427000A8FC82214DF21550FCF7A3FC01214DF260
:104280001650FCF79EFCCA214DF21750FCF799FC22
:1042900002214DF21850FCF794FC00214DF2195008
:1042A000FCF78FFC02214DF21A50FCF78AFC012129
:1042B0004DF21B50FCF785FC02214DF21C50FCF71F
:1042C00080FC34214DF21D50FCF77BFC02214DF2A5
:1042D0001E50FCF776FC67214DF21F50FCF771FC75
:1042E00002214DF22050FCF76CFC84214DF221504C
:1042F000FCF767FC02214DF22250FCF762FCA4217E
:104300004DF22350FCF75DFC02214DF22450FCF7E6
:1043100058FCB7214DF22550FCF753FC02214DF219
:104320002650FCF74EFCCF214DF22750FCF749FCFC
:1043300002214DF22850FCF744FCDE214DF22950B9
:10434000FCF73FFC02214DF22A50FCF73AFCF22127
:104350004DF22B50FCF735FC02214DF22C50FCF7AE
:1043600030FCFE214DF22D50FCF72BFC03214DF2C9
:104370002E50FCF726FC10214DF22F50FCF721FCAB
:1043800003214DF23050FCF71CFC33214DF231502B
:10439000FCF717FC03214DF23250FCF712FC6D21A3
:1043A0004DF23350FCF70DFC00214FF45640FCF762
:1043B00008FC33214DF20160FCF703FC00214DF2B3
:1043C0000260FCF7FEFB34214DF20360FCF7F9FBC1
:1043D00000214DF20460FCF7F4FB3A214DF2056038
:1043E000FCF7EFFB00214DF20660FCF7EAFB4A21E7
:1043F0004DF20760FCF7E5FB00214DF20860FCF789
:10440000E0FB5C214DF20960FCF7DBFB00214DF283
:104410000A60FCF7D6FB81214DF20B60FCF7D1FB63
:1044200000214DF20C60FCF7CCFBA6214DF20D6093
:10443000FCF7C7FB00214DF20E60FCF7C2FBE52143
:104440004DF20F60FCF7BDFB01214DF21060FCF74F
:10445000B8FB13214DF21160FCF7B3FB01214DF2C3
:104460001260FCF7AEFB54214DF21360FCF7A9FB80
:1044700001214DF21460FCF7A4FB82214DF215607E
:10448000FCF79FFB01214DF21660FCF79AFBCA2155
:104490004DF21760FCF795FB02214DF21860FCF716
:1044A00090FB00214DF21960FCF78BFB02214DF2CD
:1044B0001A60FCF786FB01214DF21B60FCF781FBC3
:1044C00002214DF21C60FCF77CFB34214DF21D6093
:1044D000FCF777FB02214DF21E60FCF772FB6721AF
:1044E0004DF21F60FCF76DFB02214DF22060FCF7DE
:1044F00068FB84214DF22160FCF763FB02214DF241
:104500002260FCF75EFBA4214DF22360FCF759FB0F
:1045100002214DF22460FCF754FBB7214DF22560D7
:10452000FCF74FFB02214DF22660FCF74AFBCF213E
:104530004DF22760FCF745FB02214DF22860FCF7A5
:1045400040FBDE214DF22960FCF73BFB02214DF2DE
:104550002A60FCF736FBF2214DF22B60FCF731FBB1
:1045600002214DF22C60FCF72CFBFE214DF22D6058
:10457000FCF727FB03214DF22E60FCF722FB1021F4
:104580004DF22F60FCF71DFB03214DF23060FCF76C
:1045900018FB33214DF23160FCF713FB03214DF280
:1045A0003260FCF70EFB6D214DF23360FCF709FB26
:1045B00055214FF47040FCF704FBAA214FF2010093
:1045C000FCF7FFFA52214FF20200FCF7FAFA082139
:1045D0004FF20300FCF7F5FA00214FF20400FCF75C
:1045E000F0FACC214FF43140FCF7EBFA00214BF20A
:1045F0000110FCF7E6FA05214FF43640FCF7E1FA2A
:1046000070214FF43740FCF7DCFA70214BF2017057
:10461000FCF7D7FA01214FF43840FCF7D2FA032116
:104620004BF60100FCF7CDFA03214BF60200FCF734
:10463000C8FA03214BF60300FCF7C3FA02214FF43A
:104640003C40FCF7BEFA00214BF60140FCF7B9FAFA
:1046500000214BF60240FCF7B4FAD0214FF4494058
:10466000FCF7AFFA02214CF60110FCF7AAFA502130
:104670004CF60210FCF7A5FA50214CF60310FCF79B
:10468000A0FA50214CF60410FCF79BFA00214FF4DD
:104690005450FCF796FA55214FF46850FCF791FA04
:1046A0004FF48850FCF716FA782003F00EFA4FF416
:1046B0002450FCF70FFA01F03DBBFE48808849F218
:1046C000253188427ED147F6F001E520FCF779FAE2
:1046D0004FF480710120FCF774FA4FF4E06102207E
:1046E000FCF76FFA41F230010320FCF76AFA00216F
:1046F0000420FCF766FA40F202210820FCF761FA78
:1047000000210920FCF75DFA00210A20FCF759FA84
:1047100000210C20FCF755FA00210D20FCF751FA7E
:1047200000210F20FCF74DFA00211020FCF749FA78
:1047300007211120FCF745FA00211220FCF741FA6D
:1047400000211320FCF73DFA00210720FCF739FA7D
:1047500041F290611020FCF734FA40F22721112039
:10476000FCF72FFA9D211220FCF72BFA4FF4C851C9
:104770001320FCF726FA25212920FCF722FA0D2127
:104780002B20FCF71EFA07213020FCF71AFA40F222
:1047900003313120FCF715FA03213220FCF711FA1E
:1047A00040F206213520FCF70CFA08213620FCF7F0
:1047B00008FA40F206413720FCF703FA4FF4417142
:1047C000382000E057E0FCF7FCF907213920FCF71E
:1047D000F8F940F202613C20FCF7F3F908213D2092
:1047E000FCF7EFF900215020FCF7EBF9EF21512005
:1047F000FCF7E7F900215220FCF7E3F940F23F1102
:104800005320FCF7DEF94FF427416020FCF7D9F97B
:1048100001216120FCF7D5F900216A20FCF7D1F9CC
:1048200000218020FCF7CDF900218120FCF7C9F997
:1048300000218220FCF7C5F900218320FCF7C1F993
:1048400000218420FCF7BDF900218520FCF7B9F98F
:1048500010219020FCF7B5F94FF4C0619220FCF7CD
:10486000B0F940F233110720FCF7ABF92221002008
:10487000FCF7A7F91FE78F48808849F22831884262
:104880007ED141F28F01EC20FCF79BF941F23421FB
:10489000EF20FCF796F94FF480710120FCF791F9B5
:1048A0004FF4E0610220FCF78CF941F23001032063
:1048B000FCF787F900210420FCF783F940F202217C
:1048C0000820FCF77EF900210920FCF77AF9002185
:1048D0000A20FCF776F901210C20FCF772F900217F
:1048E0000D20FCF76EF900210F20FCF76AF900217A
:1048F0001020FCF766F907211120FCF762F900216E
:104900001220FCF75EF900211320FCF75AF901216F
:104910000720FCF756F9322003F0FBF841F29041F2
:104920001020FCF74EF940F227211120FCF749F93D
:10493000322003F0EEF88A211220FCF742F93220EF
:1049400003F0E7F84FF4D0511320FCF73AF90621B1
:104950002920FCF736F90D212B20FCF732F9322003
:1049600003F0D7F800212020FCF72BF900212120AB
:10497000FCF727F9322003F0CCF80021302000E0CA
:1049800074E0FCF71EF940F204613120FCF719F9DC
:1049900040F205313220FCF714F900213520FCF7F4
:1049A00010F940F609413620FCF70BF94FF401717C
:1049B0003720FCF706F940F201313820FCF701F905
:1049C00040F207713920FCF7FCF800213C20FCF78D
:1049D000F8F840F60A213D20FCF7F3F8322003F006
:1049E00098F800215020FCF7ECF8EF215120FCF75B
:1049F000E8F800215220FCF7E4F840F23F11532080
:104A0000FCF7DFF84FF427416020FCF7DAF80121CA
:104A10006120FCF7D6F800216A20FCF7D2F80021CB
:104A20008020FCF7CEF800218120FCF7CAF8002195
:104A30008220FCF7C6F800218320FCF7C2F8002191
:104A40008420FCF7BEF800218520FCF7BAF810217D
:104A50009020FCF7B6F84FF4C0619220FCF7B1F853
:104A600040F233110720FCF7ACF824E611488088A7
:104A700049F2253188427CD147F6F001E520FCF768
:104A8000A0F84FF480710120FCF79BF84FF4E0612F
:104A90000220FCF796F841F230010320FCF791F870
:104AA00000210420FCF78DF840F202210820FCF7D9
:104AB00088F801E07C00002000210920FCF781F843
:104AC00000210A20FCF77DF800210C20FCF779F882
:104AD00000210D20FCF775F800210F20FCF771F87C
:104AE00000211020FCF76DF807211120FCF769F870
:104AF00000211220FCF765F800211320FCF761F873
:104B000000210720FCF75DF841F290611020FCF7CE
:104B100058F840F227211120FCF753F89D2112206C
:104B2000FCF74FF84FF4C8511320FCF74AF8252141
:104B30002920FCF746F80D212B20FCF742F807212D
:104B40003020FCF73EF840F203313120FCF739F811
:104B500003213220FCF735F840F206213520FCF71E
:104B600030F808213620FCF72CF840F206413720B7
:104B700000E05CE0FCF725F84FF441713820FCF7C9
:104B800020F807213920FCF71CF840F202613C2094
:104B9000FCF717F808213D20FCF713F800215020FE
:104BA000FCF70FF8EF215120FCF70BF80021522001
:104BB000FCF707F840F23F115320FCF702F84FF4DE
:104BC00027416020FBF7FDFF01216120FBF7F9FF82
:104BD00000216A20FBF7F5FF00218020FBF7F1FFA1
:104BE00000218120FBF7EDFF00218220FBF7E9FF88
:104BF00000218320FBF7E5FF00218420FBF7E1FF84
:104C000000218520FBF7DDFF10219020FBF7D9FF65
:104C10004FF4C0619220FBF7D4FF40F2331107201C
:104C2000FBF7CFFF22210020FBF7CBFF43E5FE4837
:104C3000808849F2283188427ED141F28F01EC20F0
:104C4000FBF7BFFF41F23421EF20FBF7BAFF4FF42F
:104C500080710120FBF7B5FF4FF4E0610220FBF704
:104C6000B0FF41F230010320FBF7ABFF002104202D
:104C7000FBF7A7FF40F202210820FBF7A2FF00216B
:104C80000920FBF79EFF00210A20FBF79AFF012174
:104C90000C20FBF796FF00210D20FBF792FF00216F
:104CA0000F20FBF78EFF00211020FBF78AFF072162
:104CB0001120FBF786FF00211220FBF782FF002165
:104CC0001320FBF77EFF01210720FBF77AFF32203C
:104CD00002F01FFF41F290411020FBF772FF40F2FB
:104CE00027211120FBF76DFF322002F012FF8A21ED
:104CF0001220FBF766FF322002F00BFF4FF4D05179
:104D00001320FBF75EFF06212920FBF75AFF0D2138
:104D10002B20FBF756FF322002F0FBFE0021202063
:104D2000FBF74FFF00212120FBF74BFF322002F061
:104D3000F0FE0021302000E074E0FBF742FF40F27B
:104D400004613120FBF73DFF40F205313220FBF7D3
:104D500038FF00213520FBF734FF40F609413620AB
:104D6000FBF72FFF4FF401713720FBF72AFF40F2CA
:104D700001313820FBF725FF40F207713920FBF79E
:104D800020FF00213C20FBF71CFF40F60A213D20BC
:104D9000FBF717FF322002F0BCFE00215020FBF78A
:104DA00010FFEF215120FBF70CFF00215220FBF7F1
:104DB00008FF40F23F115320FBF703FF4FF4274158
:104DC0006020FBF7FEFE01216120FBF7FAFE0021C7
:104DD0006A20FBF7F6FE00218020FBF7F2FE00219F
:104DE0008120FBF7EEFE00218220FBF7EAFE002186
:104DF0008320FBF7E6FE00218420FBF7E2FE002182
:104E00008520FBF7DEFE10219020FBF7DAFE4FF441
:104E1000C0619220FBF7D5FE40F233110720FBF76B
:104E2000D0FE48E48048808849F2203188427DD114
:104E300000210846FBF7C5FE4FF480710120FBF707
:104E4000C0FE4FF4E0610220FBF7BBFE41F23001EF
:104E50000320FBF7B6FE00210420FBF7B2FE40F270
:104E600002210820FBF7ADFE00210920FBF7A9FE77
:104E700000210A20FBF7A5FE01210C20FBF7A1FE73
:104E800000210D20FBF79DFE00210F20FBF799FE6E
:104E9000322002F03EFE40F201110720FBF791FEA6
:104EA000322002F036FE4FF486511020FBF789FEC7
:104EB00007211120FBF785FE4FF488711220FBF7C4
:104EC00080FE4FF430611320FBF77BFE0021292088
:104ED000FBF777FE44F210012B20FBF772FE002156
:104EE0005020FBF76EFEEF215120FBF76AFE0021F8
:104EF0005220FBF766FE40F23F115320FBF761FEA4
:104F00004FF41C516020FBF75CFE01216120FBF790
:104F100058FE00216A20FBF754FE00218020FBF799
:104F200050FE00218120FBF74CFE00E02EE0002126
:104F30008220FBF746FE00218320FBF742FE002182
:104F40008420FBF73EFE00218520FBF73AFE10216E
:104F50009020FBF736FE00219220FBF732FE012164
:104F60009320FBF72EFE4FF488719520FBF729FE66
:104F700000219720FBF725FE00219820FBF721FE5A
:104F800040F273110720FBF71CFE73E4264880886B
:104F900049F2313188427DD141F21401E720FBF71B
:104FA00010FE4FF480710120FBF70BFE4FF40071EF
:104FB0000220FBF706FE41F238010320FBF701FE59
:104FC00040F202210820FBF7FCFD00210920FBF73D
:104FD000F8FD00210A20FBF7F4FD00210C20FBF76F
:104FE000F0FD00210D20FBF7ECFD00210F20FBF769
:104FF000E8FD00211020FBF7E4FD07211120FBF75D
:10500000E0FD00211220FBF7DCFD00211320FBF75F
:10501000D8FDC82002F07DFD41F290611020FBF721
:10502000D0FD40F2272101E07C0000201120FBF799
:10503000C8FD322002F06DFD0C211220FBF7C1FDEE
:10504000322002F066FD4FF400611320FBF7B9FD3A
:1050500011212920FBF7B5FD0B212B20FBF7B1FD1A
:10506000322002F056FD00212020FBF7AAFD40F27D
:105070003F112120FBF7A5FD00213020FBF7A1FD0A
:105080004FF483713120FBF79CFD00213220FBF7A8
:1050900098FD00E067E04FF401713520FBF791FDCA
:1050A00041F20A613620FBF78CFD40F20771372090
:1050B000FBF787FD4FF483713820FBF782FD40F248
:1050C00007713920FBF77DFD40F202413C20FBF7E0
:1050D00078FD40F60F413D20FBF773FD0021502085
:1050E000FBF76FFDEF215120FBF76BFD00215220F4
:1050F000FBF767FD40F23F115320FBF762FD4FF4D1
:105100001C516020FBF75DFD01216120FBF759FD7B
:1051100000216A20FBF755FD00218020FBF751FD9F
:1051200000218120FBF74DFD00218220FBF749FD86
:1051300000218320FBF745FD00218420FBF741FD82
:1051400000218520FBF73DFD10219020FBF739FD64
:105150004FF4C0619220FBF734FD40F23311072079
:10516000FBF72FFD81E4FE48808845F20841884224
:105170007ED14FF480710120FBF723FD4FF4E061F5
:105180000220FBF71EFD41F230010320FBF719FD61
:1051900000210420FBF715FD40F207210820FBF752
:1051A00010FD00210920FBF70CFD00210A20FBF770
:1051B00008FD00210C20FBF704FD00210D20FBF76A
:1051C00000FD00210F20FBF7FCFC142002F0A1FCE5
:1051D00041F2B0611020FBF7F4FC01211120FBF734
:1051E000F0FC01211720FBF7ECFC4FF49C7112201E
:1051F000FBF7E7FC4FF400611320FBF7E2FC092109
:105200002920FBF7DEFC09212A20FBF7DAFC00212C
:10521000A420FBF7D6FC00215020FBF7D2FCEF21A5
:105220005120FBF7CEFC00215220FBF7CAFC40F2D4
:105230003F115320FBF7C5FC4FF41C516020FBF7D6
:10524000C0FC01216120FBF7BCFC00216A20FBF7B8
:10525000B8FC00218020FBF7B4FC00218120FBF783
:10526000B0FC00218220FBF7ACFC0021832000E091
:1052700023E0FBF7A6FC00218420FBF7A2FC002121
:105280008520FBF79EFC13219020FBF79AFC002160
:105290009220FBF796FC03219320FBF792FC4FF43E
:1052A00088719520FBF78DFC40F273110720FBF706
:1052B00088FC322002F02DFCB8E4A948808841F235
:1052C000055188427ED100210720FBF77AFC32206D
:1052D00002F01FFC4FF48E711220FBF772FC0121CB
:1052E000A420FBF76EFC0F210820FBF76AFC0821C5
:1052F0000A20FBF766FC08210D20FBF762FC40F258
:1053000007713020FBF75DFC07213120FBF759FCCA
:1053100040F203613220FBF754FC4FF4E06133208C
:10532000FBF74FFC40F202213420FBF74AFC02213C
:105330003520FBF746FC41F60F713620FBF741FCA8
:1053400040F207713720FBF73CFC00213820FBF7C7
:1053500038FC00213920FBF734FC40F207713A2079
:10536000FBF72FFC00213B20FBF72BFC07213C2007
:10537000FBF727FC00213D20FBF723FC322002F045
:10538000C8FB01210720FBF71CFC01211720FBF7BC
:1053900018FC322002F0BDFB4FF4BD511020FBF78A
:1053A00010FC40F217211120FBF70BFC4FF48F711A
:1053B0001220FBF706FC4FF470611320FBF701FC91
:1053C000002100E094E02A20FBF7FBFB0A212920C2
:1053D000FBF7F7FB4FF49F711220FBF7F2FB002164
:1053E0005020FBF7EEFBEF215120FBF7EAFB0021F9
:1053F0005220FBF7E6FB40F23F115320FBF7E1FBA5
:105400004FF41C516020FBF7DCFB01216120FBF70E
:10541000D8FB00216A20FBF7D4FB00218020FBF79A
:10542000D0FB00218120FBF7CCFB00218220FBF781
:10543000C8FB00218320FBF7C4FB00218420FBF77D
:10544000C0FB00218520FBF7BCFB13219020FBF75C
:10545000B8FB4FF440719220FBF7B3FB052193207A
:10546000FBF7AFFB00219520FBF7ABFB002197205A
:10547000FBF7A7FB00219820FBF7A3FB4FF48071FB
:105480000120FBF79EFB4FF4E0610220FBF799FB44
:1054900041F238010320FBF794FB00210420FBF7C5
:1054A00090FB00210C20FBF78CFB00210F20FBF769
:1054B00088FB00212020FBF784FB00212120FBF743
:1054C00080FB21210720FBF77CFB142002F021FB4D
:1054D00061210720FBF775FB142002F01AFB40F254
:1054E00073110720FBF76DFB142002F012FB98E408
:1054F0001B4880884BF2055188427DD10021084627
:10550000FBF75FFB00210846FBF75BFB0021084629
:10551000FBF757FB00210846FBF753FB0121A420B2
:10552000FBF74FFB142002F0F4FA4FF41C516020FB
:10553000FBF747FB40F202210820FBF742FB4FF448
:1055400005713020FBF73DFB43F215713120FBF76D
:1055500038FB40F204613220FBF733FB02E000002D
:105560007C00002040F616613320FBF72AFB42F254
:1055700011213420FBF725FB4FF4A8513520FBF710
:1055800020FB48F207513620FBF71BFB41F2074195
:105590003720FBF716FB41F203413820FBF711FBE4
:1055A00020213920FBF70DFB1A219020FBF709FB86
:1055B00000211020FBF705FB07211120FBF701FB61
:1055C00000211220FBF7FDFA00211320FBF7F9FA66
:1055D000142002F09EFA4FF4E6611020FBF7F1FA76
:1055E00040F237111120FBF7ECFA142002F091FA87
:1055F0004FF4DC71122000E088E0FBF7E2FA14209F
:1056000002F087FA4FF470611320FBF7DAFA802179
:105610002A20FBF7D6FA48212920FBF7D2FA1420DA
:1056200002F077FA4FF480710120FBF7CAFA4FF4C9
:10563000E0610220FBF7C5FA41F238010320FBF7D5
:10564000C0FA40F202210820FBF7BBFA00210A2031
:10565000FBF7B7FA00210C20FBF7B3FA00210D206D
:10566000FBF7AFFA30210E20FBF7ABFA00215020F8
:10567000FBF7A7FAEF215120FBF7A3FA00215220F4
:10568000FBF79FFA40F23F115320FBF79AFA4FF4D1
:105690001C516020FBF795FA01216120FBF791FA7C
:1056A00000216A20FBF78DFA11219020FBF789FA7F
:1056B0004FF4C0619220FBF784FA40F2024193203C
:1056C000FBF77FFA02219420FBF77BFA142002F00B
:1056D00020FA01210720FBF774FA142002F019FACE
:1056E00061210720FBF76DFA40F273110720FBF7E9
:1056F00068FA00212020FBF764FA00212120FBF743
:1057000060FA22210020FBF75CFA13E3FE48808850
:105710004CF2055188427CD100210846FBF751FA32
:1057200000210846FBF74DFA142002F0F2F900219F
:105730000846FBF746FA00210846FBF742FA00212B
:105740000846FBF73EFA00210846FBF73AFA01212A
:10575000A420FBF736FA142002F0DBF94FF41C51B9
:105760006020FBF72EFA40F606010820FBF729FA25
:1057700040F203713020FBF724FA01213120FBF7BE
:1057800020FA04213220FBF71CFA4FF481713320F8
:10579000FBF717FA4FF440713420FBF712FA40F28E
:1057A00003113520FBF70DFA1F213620FBF709FA0C
:1057B00040F203713720FBF704FA01213820FBF790
:1057C00000FA04213920FBF7FCF915219020FBF7A2
:1057D000F8F94FF482611020FBF7F3F940F247210A
:1057E0001120FBF7EEF94FF4DE711220FBF7E9F917
:1057F0004FF460611320FBF7E4F9782002F089F997
:105800004FF480710120FBF7DCF94FF400710220A6
:1058100000E052E0FBF7D5F941F230010320FBF73D
:10582000D0F908210A20FBF7CCF900210C20FBF766
:10583000C8F920210E20FBF7C4F900210F20FBF747
:10584000C0F900212020FBF7BCF900212120FBF743
:10585000B8F93D212A20FBF7B4F9142002F059F9D8
:105860002D212920FBF7ADF900215020FBF7A9F9E4
:105870004DF2EF015120FBF7A4F900215220FBF774
:10588000A0F940F23F115320FBF79BF90021612062
:10589000FBF797F900216A20FBF793F94FF4407169
:1058A0009220FBF78EF905219320FBF78AF94FF43C
:1058B00080710720FBF785F93CE29348808848F621
:1058C000891188427DD101210020FBF77AF94AF63F
:1058D000A4010320FBF775F900210C20FBF771F9F7
:1058E00040F60C010D20FBF76CF94FF42C510E2003
:1058F000FBF767F9B0211E20FBF763F942F63F3151
:105900000120FBF75EF94FF4C0610220FBF759F963
:1059100000211020FBF755F946F278011120FBF722
:1059200050F900210520FBF74CF900210620FBF778
:1059300048F94EF61C711620FBF743F90321172096
:10594000FBF73FF940F233210720FBF73AF900213A
:105950000B20FBF736F900210F20FBF732F900216D
:105960004120FBF72EF900214220FBF72AF9002104
:105970004820FBF726F940F23F114920FBF721F9B7
:1059800000214A20FBF71DF900214B20FBF719F9F4
:105990004FF46F414420FBF714F900214520FBF739
:1059A00010F940F23F114620FBF70BF940F2077166
:1059B0003020FBF706F94FF401713120FBF701F9B4
:1059C00000E03DE04FF401713220FBF7FAF840F2BD
:1059D00002513320FBF7F5F840F207513420FBF772
:1059E000F0F84FF401713520FBF7EBF84FF401713B
:1059F0003620FBF7E6F840F202513720FBF7E1F8DA
:105A000040F202313A20FBF7DCF840F202313B2051
:105A1000FBF7D7F800212320FBF7D3F8002124203F
:105A2000FBF7CFF84FF400412520FBF7CAF800211F
:105A30004F20FBF7C6F800214E20FBF7C2F879E1B2
:105A40003148808844F2315188427CD101210020C4
:105A5000FBF7B7F80A2002F05CF841F22861102049
:105A6000FBF7AFF80E211220FBF7ABF840F6392117
:105A70001320FBF7A6F80A2002F04BF84021112072
:105A8000FBF79FF850211520FBF79BF80A2002F046
:105A900040F81E211220FBF794F80A2002F039F892
:105AA0004FF4B1511020FBF78CF842F63921132046
:105AB000FBF787F80A2002F02CF84FF480710120E0
:105AC000FBF77FF84FF440710220FBF77AF841F2C0
:105AD00038010320FBF775F840F202210820FBF79C
